{
  "contractName": "EscrowERC20",
  "abi": [
    {
      "inputs": [
        {
          "internalType": "address",
          "name": "_token",
          "type": "address"
        },
        {
          "internalType": "address",
          "name": "_payee",
          "type": "address"
        },
        {
          "internalType": "address",
          "name": "_arbiter",
          "type": "address"
        },
        {
          "internalType": "uint256",
          "name": "_amount",
          "type": "uint256"
        }
      ],
      "stateMutability": "nonpayable",
      "type": "constructor"
    },
    {
      "inputs": [],
      "name": "amount",
      "outputs": [
        {
          "internalType": "uint256",
          "name": "",
          "type": "uint256"
        }
      ],
      "stateMutability": "view",
      "type": "function",
      "constant": true
    },
    {
      "inputs": [],
      "name": "arbiter",
      "outputs": [
        {
          "internalType": "address",
          "name": "",
          "type": "address"
        }
      ],
      "stateMutability": "view",
      "type": "function",
      "constant": true
    },
    {
      "inputs": [],
      "name": "isConfirmed",
      "outputs": [
        {
          "internalType": "bool",
          "name": "",
          "type": "bool"
        }
      ],
      "stateMutability": "view",
      "type": "function",
      "constant": true
    },
    {
      "inputs": [],
      "name": "isLocked",
      "outputs": [
        {
          "internalType": "bool",
          "name": "",
          "type": "bool"
        }
      ],
      "stateMutability": "view",
      "type": "function",
      "constant": true
    },
    {
      "inputs": [],
      "name": "payee",
      "outputs": [
        {
          "internalType": "address",
          "name": "",
          "type": "address"
        }
      ],
      "stateMutability": "view",
      "type": "function",
      "constant": true
    },
    {
      "inputs": [],
      "name": "payer",
      "outputs": [
        {
          "internalType": "address",
          "name": "",
          "type": "address"
        }
      ],
      "stateMutability": "view",
      "type": "function",
      "constant": true
    },
    {
      "inputs": [],
      "name": "token",
      "outputs": [
        {
          "internalType": "contract IERC20",
          "name": "",
          "type": "address"
        }
      ],
      "stateMutability": "view",
      "type": "function",
      "constant": true
    },
    {
      "inputs": [],
      "name": "lock",
      "outputs": [],
      "stateMutability": "nonpayable",
      "type": "function"
    },
    {
      "inputs": [],
      "name": "confirm",
      "outputs": [],
      "stateMutability": "nonpayable",
      "type": "function"
    },
    {
      "inputs": [],
      "name": "commit",
      "outputs": [],
      "stateMutability": "nonpayable",
      "type": "function"
    },
    {
      "inputs": [],
      "name": "rollback",
      "outputs": [],
      "stateMutability": "nonpayable",
      "type": "function"
    }
  ],
  "bytecode": "0x608060405234801561001057600080fd5b5060405161070c38038061070c83398101604081905261002f916100a6565b600080546001600160a01b03199081166001600160a01b039687161790915560018054339083161790556002805482169486169490941790935560038054909316919093161790556004556005805461ffff191690556100f1565b80516001600160a01b03811681146100a157600080fd5b919050565b600080600080608085870312156100bc57600080fd5b6100c58561008a565b93506100d36020860161008a565b92506100e16040860161008a565b6060959095015193969295505050565b61060c806101006000396000f3fe608060405234801561001057600080fd5b50600436106100a95760003560e01c8063a79a3cee11610071578063a79a3cee14610115578063aa8c217c14610127578063ae90b2131461013e578063f83d08ba14610151578063fc0c546a14610159578063fe25e00a1461016c57600080fd5b8063123119cd146100ae5780633c7a3aff146100de5780637022b58e146100e85780639afd9d78146100f0578063a4e2d634146100f8575b600080fd5b6001546100c1906001600160a01b031681565b6040516001600160a01b0390911681526020015b60405180910390f35b6100e661017f565b005b6100e66102af565b6100e661036c565b6005546101059060ff1681565b60405190151581526020016100d5565b60055461010590610100900460ff1681565b61013060045481565b6040519081526020016100d5565b6002546100c1906001600160a01b031681565b6100e661047d565b6000546100c1906001600160a01b031681565b6003546100c1906001600160a01b031681565b600554610100900460ff166101db5760405162461bcd60e51b815260206004820152601d60248201527f5472616e73616374696f6e206e6f7420636f6e6669726d65642079657400000060448201526064015b60405180910390fd5b6000546002546004805460405163a9059cbb60e01b81526001600160a01b0393841692810192909252602482015291169063a9059cbb906044015b6020604051808303816000875af1158015610235573d6000803e3d6000fd5b505050506040513d601f19601f8201168201806040525081019061025991906105ad565b61029d5760405162461bcd60e51b8152602060048201526015602482015274151bdad95b881d1c985b9cd9995c8819985a5b1959605a1b60448201526064016101d2565b6102ad6005805461ffff19169055565b565b6003546001600160a01b031633146103095760405162461bcd60e51b815260206004820152601860248201527f4f6e6c7920617262697465722063616e20636f6e6669726d000000000000000060448201526064016101d2565b60055460ff1661035b5760405162461bcd60e51b815260206004820152601860248201527f46756e647320617265206e6f74206c6f636b656420796574000000000000000060448201526064016101d2565b6005805461ff001916610100179055565b6001546001600160a01b031633148061038f57506003546001600160a01b031633145b6103e65760405162461bcd60e51b815260206004820152602260248201527f4f6e6c79207061796572206f7220617262697465722063616e20726f6c6c6261604482015261636b60f01b60648201526084016101d2565b600554610100900460ff161561043e5760405162461bcd60e51b815260206004820152601d60248201527f5472616e73616374696f6e20616c726561647920636f6e6669726d656400000060448201526064016101d2565b6000546001546004805460405163a9059cbb60e01b81526001600160a01b0393841692810192909252602482015291169063a9059cbb90604401610216565b6001546001600160a01b031633146104d75760405162461bcd60e51b815260206004820152601960248201527f4f6e6c792070617965722063616e206c6f636b2066756e64730000000000000060448201526064016101d2565b600054600154600480546040516323b872dd60e01b81526001600160a01b039384169281019290925230602483015260448201529116906323b872dd906064016020604051808303816000875af1158015610536573d6000803e3d6000fd5b505050506040513d601f19601f8201168201806040525081019061055a91906105ad565b61059e5760405162461bcd60e51b8152602060048201526015602482015274151bdad95b881d1c985b9cd9995c8819985a5b1959605a1b60448201526064016101d2565b6005805460ff19166001179055565b6000602082840312156105bf57600080fd5b815180151581146105cf57600080fd5b939250505056fea26469706673582212200aa82d9e0cd021bdb048b6ce920d141424b9e7e764be42a31bfcbd7c599fdf4d64736f6c63430008140033",
  "immutableReferences": {},
  "source": "// SPDX-License-Identifier: MIT\npragma solidity ^0.8.0;\n\nimport \"@openzeppelin/contracts/token/ERC20/IERC20.sol\";\n\ncontract EscrowERC20 {\n    IERC20 public token;\n    address public payer;\n    address public payee;\n    address public arbiter;\n    uint public amount;\n    bool public isLocked;\n    bool public isConfirmed;\n\n    constructor(address _token, address _payee, address _arbiter, uint _amount) {\n        token = IERC20(_token);\n        payer = msg.sender;\n        payee = _payee;\n        arbiter = _arbiter;\n        amount = _amount;\n        isLocked = false;\n        isConfirmed = false;\n    }\n\n    function lock() public {\n        require(msg.sender == payer, \"Only payer can lock funds\");\n        require(token.transferFrom(payer, address(this), amount), \"Token transfer failed\");\n        isLocked = true;\n    }\n\n    function confirm() public {\n        require(msg.sender == arbiter, \"Only arbiter can confirm\");\n        require(isLocked, \"Funds are not locked yet\");\n        isConfirmed = true;\n    }\n\n    function commit() public {\n        require(isConfirmed, \"Transaction not confirmed yet\");\n        require(token.transfer(payee, amount), \"Token transfer failed\");\n        reset();\n    }\n\n    function rollback() public {\n        require(msg.sender == payer || msg.sender == arbiter, \"Only payer or arbiter can rollback\");\n        require(!isConfirmed, \"Transaction already confirmed\");\n        require(token.transfer(payer, amount), \"Token transfer failed\");\n        reset();\n    }\n\n    function reset() internal {\n        isLocked = false;\n        isConfirmed = false;\n    }\n}\n",
  "sourcePath": "/home/jeff/ERC20_chain/truffleProject/contracts/EscrowERC20.sol",
  "compiler": {
    "name": "solc",
    "version": "0.8.20+commit.a1b79de6.Emscripten.clang"
  },
  "schemaVersion": "3.4.16",
  "updatedAt": "2024-05-29T11:46:08.253Z",
  "networkType": "ethereum",
  "devdoc": {
    "kind": "dev",
    "methods": {},
    "version": 1
  },
  "userdoc": {
    "kind": "user",
    "methods": {},
    "version": 1
  }
}